S00F000070726F6A6563742E737265631E
S11300000C944C000C94E5030C945E000C945E007C
S11300100C945E000C945E000C94E7030C945E0058
S11300200C945E000C945E000C945E000C94FB0334
S11300300C945E000C945E000C945E000C945E00C4
S11300400C945E000C945E000C945E000C945E00B4
S11300500C945E00F6066C076C07F9066C076C07D7
S11300606C076C076C076C07060719076C076C07AD
S11300706C0726076C076C076C0734076C076C0762
S11300806C076C076C076C076C0759076C076C07E7
S11300906C076C076C07620711241FBECFE5D4E020
S11300A0DEBFCDBF21E0A0E6B0E001C01D92A736BF
S11300B0B207E1F70E946D070C94B3070C9400009B
S11300C00F922F923F924F925F926F927F928F92F4
S11300D09F92AF92BF92CF92DF92EF92FF920F93D3
S11300E01F93CF93DF939091610091FF4DC09D7F4B
S11300F090936100009165010F93009164010F9347
S1130100009163010FBF00904301109044012090BF
S1130110450130904601409047015090480160905D
S1130120490170904A0180904B0190904C01A0903D
S11301304D01B0904E01C0904F01D0905001E0901D
S11301405101F090520100915301109154012091FA
S113015055013091560140915701509158016091D9
S1130160590170915A0180915B0190915C01A091B9
S11301705D01B0915E01C0915F01D0916001E09199
S11301806101F0916201089590914101C92F90910C
S11301904201D92F9927AA24BB24CC24DD24EE24A0
S11301A0BB27AA271124002722241127332422271E
S11301B04424332755244427662455277724662767
S11301C08824772799248827F0E0ECE991E090933C
S11301D061009927D23A08F015C23F96B09590E491
S11301E0A927E7849089A18890FB36F4B38CC48C4A
S11301F0D58C9F73A07CA92B1EF09173AE7CA92B88
S1130200B0FB66F01F920F939381002311F4CE7F0D
S113021003C006FD0AF09027928BB1600FEFE0FE59
S113022036C0DE5F12881A201B200027A5FB3EF48F
S1130230A1FB2EF4C0FB1EF4AD7DCE7F28C010269A
S1130240F9F4A026B026D250B09590E4A927AA24A8
S1130250A0FBE08091819F71A07CA92B26F4BB2494
S1130260CC24DD24A17F3F97A6FB1EF08F919F90A5
S1130270A064A4FFB1C1882311F4A862D060A7C10F
S1130280902F012D01950121902BA926B926B1FBB0
S113029066F02F921F939481112311F4CD7F03C034
S11302A016FD0AF09127938BB2601FEFE1FE26C082
S11302B0DE5F23882A202B201127A5FB3EF4A1FB17
S11302C02EF4C1FB1EF4AD7DCD7F18C0212679F438
S11302D0A126B126D250B0FB1EF00F911F90B16041
S11302E0E0FEB2CF002311F4A262C160A8CF912F27
S11302F0122D11951221912BA926B926B2FB66F075
S11303003F922F939581222311F4CB7F03C026FDC6
S11303100AF09227948BB4602FEFE2FE26C0DE5FD2
S113032034883A203B202227A5FB3EF4A1FB2EF47F
S1130330C2FB1EF4AD7DCB7F18C0322679F4A22611
S1130340B226D250B1FB1EF01F912F90B260E1FE95
S1130350C2CF112311F4A262C260B8CF922F232D11
S113036021952321922BA926B926B3FB66F04F923F
S11303703F939681332311F4C77F03C036FD0AF0FF
S11303809327958BB8603FEFE3FE26C0DE5F458878
S11303904A204C203327A5FB3EF4A2FB2EF4C3FBDA
S11303A01EF4AB7DC77F18C0432679F4A326C32669
S11303B0D250B2FB1EF02F913F90B460E2FEC2CF48
S11303C0222311F4A262C460B8CF932F342D319547
S11303D03421932BA926C926B4FB66F05F924F9370
S11303E09781442311F4CF7E03C046FD0AF094277D
S11303F0968BB0614FEFE4FE26C0DE5F56885A202C
S11304005C204427A5FB3EF4A2FB2EF4C4FB1EF49F
S1130410AB7DCF7E18C0542679F4A426C426D250CE
S1130420B3FB1EF03F914F90B860E3FEC2CF33237D
S113043011F4A462C860B8CF942F452D419545218D
S1130440942BA926C926B5FB66F06F925F9390851D
S1130450552311F4CF7D03C056FD0AF09527978BE1
S1130460B0625FEFE5FE26C0DE5F67886A206C201D
S11304705527A5FB3EF4A2FB2EF4C5FB1EF4AB7D71
S1130480CF7D18C0652679F4A526C526D250B4FBC5
S11304901EF04F915F90B061E4FEC2CF442311F48B
S11304A0A462C061B8CF952F562D51955621952B36
S11304B0A926C926B6FB66F07F926F9391856623C1
S11304C011F4CF7B03C066FD0AF09627908FB064C9
S11304D06FEFE6FE26C0DE5F708C7A207D206627F3
S11304E0A5FB3EF4A3FB2EF4C6FB1EF4A77DCF7B35
S11304F018C0762679F4A626D626D250B5FB1EF06F
S11305005F916F90B062E5FEC2CF552311F4A462EF
S1130510C062B8CF962F672D61956721962BA926C7
S1130520D926B7FB66F08F927F939285772311F4D7
S1130530CF7703C076FD0AF09727918FB0687FEFDD
S1130540E7FE26C0DE5F818C8A208D207727A5FBFD
S11305503EF4A3FB2EF4C7FB1EF4A77DCF7718C08F
S1130560872679F4A726D726D250B6FB1EF06F91C2
S11305707F90B064E6FEC2CF662311F4A862C06423
S1130580B8CF972F782D71957821972BA926D92646
S1130590A6FB66F09F928F939385882311F4DF7FE7
S11305A003C086FD0AF09827928FA0648FEFA4FF02
S11305B011CEDE5F928C9A209D208827A5FB3EF405
S11305C0A3FB2EF4D0FB1EF4A77DDF7F03CE982679
S11305D079F4A826D826D250B7FB1EF07F918F90CD
S11305E0B068E7FEC2CF772311F4A862C068B8CF21
S11305F0982F892D81958921982BA926D926EACD72
S1130600992795BB992795BB992790936100A4FDE1
S11306108093B900E7FC7093B800E6FC6093B700E0
S1130620E5FC5093B600E4FC4093B500E3FC309342
S1130630B400E2FC2093B300E1FC1093B200E0FCB0
S11306400093B100F0E0E1EBD1E0C3E218E0E88010
S1130650A98131973F91A4FD30831F9040E83197E1
S11306603F919E2D942309F030831F904695B9F74E
S11306702F971A9561F7DF91CF911F910F91FF90FA
S1130680EF90DF90CF90BF90AF909F908F907F902E
S11306906F905F904F903F902F900F90112408958A
S11306A0009353010FB7009363010F910F910091D1
S11306B0610000FF62C00091600000FF4DC0009126
S11306C061000260009361000F91009364010F9137
S11306D00093650102E00F9303E00F93009243013E
S11306E01092440120924501309246014092470104
S11306F0509248016092490170924A0180924B01E4
S113070090924C01A0924D01B0924E01C0924F01C3
S1130710D0925001E0925101F09252011093540191
S1130720209355013093560140935701509358013B
S11307306093590170935A0180935B0190935C011B
S1130740A0935D01B0935E01C0935F01D0936001FB
S1130750E0936101F09362010091600001FB6EF48B
S11307601F930D2F069510E00A3024F0110F11602D
S11307700A50FACF109515BB1F91929A0027009347
S11307806000009163010FBF00915301189581B37C
S1130790846081BB82B3846082BB85B78C7F85BF54
S11307A08BB780648BBF08951FBC2AE02EBD9BBD10
S11307B08ABD1DBC1CBC80E189BF089590BD89B968
S11307C088E98AB986E880BD08950E9450031F9283
S11307D00F920FB60F9211248F9380916000826064
S11307E08093600082B38B7F82BB8F910F900FBE8A
S11307F00F901F9018951F920F920FB60F9211240D
S11308002F933F934F935F938F939F93EF93FF9314
S11308108CB18D3011F08A3041F58D3069F49091AE
S11308206601292F207C41F4992331F09C3321F077
S11308309064909366019AC08A3071F49091660135
S1130840292F207C203441F4992331F09C3321F06A
S11308509068909366018AC08A3019F410926601F8
S113086085C08CE38093660181C0909166019111EB
S11308703AC0813421F484E08093660177C08334E4
S113088021F488E08093660171C08E3421F48CE0F9
S1130890809366016BC0803521F480E1809366010A
S11308A065C0833521F484E1809366015FC084359B
S11308B021F488E18093660159C08F3421F48CE1DE
S11308C08093660153C0823421F480E280936601F0
S11308D04DC0843421F484E28093660147C08CE3E4
S11308E08093660143C09C3309F440C0292F207CC7
S11308F0E9F5292F237030E0A9014F5F5F4F4430A1
S113090051058CF5843551F4492F469546954F7021
S1130910413021F49F5F9093660128C08B3451F4D9
S1130920492F469546954F70473021F49F5F909329
S113093066011CC04FEC480F493088F4492F469596
S113094046954F70433011F0493049F4F901EE599E
S1130950FF4F805380839F5F9093660107C08CE3B1
S11309608093660103C08CE38093660180916601E5
S1130970982F907C903C61F4803E11F0863E29F4DF
S11309808091600081608093600082B38B7F82BB22
S1130990FF91EF919F918F915F914F913F912F9193
S11309A00F900FBE0F901F90189580E007C0E82F9E
S11309B0F0E0E759FF4F9FE090838F5F8135B8F3F4
S11309C080E006C0E82FF0E0E654FF4F10828F5F0E
S11309D08938C0F331E025C0432F50E0415051091C
S11309E02FE0249FC001259F900D1124FC01E654A3
S11309F0FF4F2FEF2083FC01E554FF4F4EE340836C
S1130A00FC01E454FF4F2083FC01EA53FF4F208391
S1130A10FC01E953FF4F2083FC01E853FF4F20837F
S1130A203F5F3A30C8F281E007C0E82FF0E0E454B9
S1130A30FF4F9FEF90838F5F8A30B8F3EAEBF0E0CB
S1130A4081818160818386A5816086A7E5E1F1E0EB
S1130A508081816080838FEF8093410181E0809366
S1130A604201089578940E94D50481E08093660041
S1130A708FEF84BB0E94C70381E19AE70E94D403ED
S1130A8080E490E00E94DE031092650010926601FB
S1130A90109268001092670008955D9BFECF8CB998
S1130AA008958FE40E944D058BE40E944D058DE06E
S1130AB00E944D058AE00E944D05089584E40E9439
S1130AC04D058DE00E944D058AE00E944D05089574
S1130AD0882351F0282F30E02150310981E001C0F2
S1130AE0880F2A95EAF708958FE00895EF92FF9210
S1130AF00F931F93CF93DF93E2E6F0E0108101811F
S1130B00F2808F2D0E946805C12FD0E0BE01615094
S1130B107109FB01EE0FFF1FEE0FFF1FEE0FFF1F0A
S1130B20E60FF71F402F50E0DA011197EA0FFB1F81
S1130B30E759FF4F808399E0F91243C08FE0869F05
S1130B407001879FF00C1124F70131969F01265400
S1130B503F4FE90188818F7D8883093049F4A2E4FD
S1130B60B1E08C918E7F8C938881877E8883DCC0F2
S1130B7021E030E0A9010A2E02C0440F551F0A9457
S1130B80E2F7409561E471E0EB0188818423888376
S1130B90CD0163E070E00E9485076F5F7F4F02C064
S1130BA0220F331F6A95E2F7E654FF4F20958081A8
S1130BB028232083E701C654DF4F888148234883D4
S1130BC0B3C0093061F49FE0969FF001979FF00D48
S1130BD01124E554FF4F90819F7E908316C09FE0BF
S1130BE0969F9001979F300D1124E1E0F0E00A2ECA
S1130BF002C0EE0FFF1F0A94E2F726543F4F0E2F58
S1130C000095F9019081902390839FE0969F700155
S1130C10979FF00C1124282F2095B70164547F4F1F
S1130C20FB0180818223808344545F4FFA018081D9
S1130C3082238083CD0163E070E00E948507F70181
S1130C403C96E60FF71FE654FF4F80818223808392
S1130C509BEA199F912D11249695892F880F980F3F
S1130C60191B912F01F5AE01435051093FE0349F08
S1130C70F001359FF00D11243C96E60FF71FE65462
S1130C80FF4F8081822380834F5F5F4F349FF00149
S1130C90359FF00D11243C96E60FF71FE654FF4FE5
S1130CA08081822380839130F1F43FE03C9FF00106
S1130CB03D9FF00D11243C96E60FF71FE654FF4FBD
S1130CC0808182238083AE014F5F5F4F349FF001A8
S1130CD0359FF00D11243C96E60FF71FE654FF4FA5
S1130CE08081822380839230F9F4AE01425051090D
S1130CF09FE0949FF001959FF00D11243C96E60F20
S1130D00F71FE654FF4F8081822380839C9FF0016C
S1130D109D9FF00D11243C966E0F7F1FFB01E6543E
S1130D20FF4F808128232083E2E4F1E080818E5FFD
S1130D308083DF91CF911F910F91FF90EF900895E1
S1130D408F3061F0811102C099E004C090E002C0CC
S1130D5086959F5F8111FCCF892F089580E00895C7
S1130D601F93CF93DF93D82FC62F90E00197FC01F8
S1130D70EE0FFF1FEE0FFF1FEE0FFF1FE80FF91F0F
S1130D80E60FF11DE859FF4F80810E94A006182F3D
S1130D908EE40E944D0580E38D0F0E944D0580E393
S1130DA08C0F0E944D0580E3810F0E944D058DE05C
S1130DB00E944D058AE00E944D05DF91CF911F915D
S1130DC00895E09166018E2F807C803C11F410928E
S1130DD066018E2F90E0FC01E55CF109E232F10539
S1130DE008F07AC0E65DFF4F0C9499070E94510504
S1130DF0089580916500813009F46EC081E080938C
S1130E0066000E94D5040E945105089580916500F2
S1130E10813009F461C080916600811105C081E0D0
S1130E20809366000E94D5040E9476050E945105B5
S1130E30089580916500813009F44EC081E080936B
S1130E406500109266000E94510508958091650026
S1130E50813009F441C081E0809368008093670089
S1130E6061E00E94B0060895809165008130A1F18F
S1130E7090916800993048F080916700893028F09B
S1130E800E945E050E945E050895809167008F5F51
S1130E90809367008A3030F081E0809367009F5F21
S1130EA09093680060916700809168000E94B0068A
S1130EB0089580916500882379F0109265000E945E
S1130EC05105089580916500882331F0E2E6F0E051
S1130ED0618180810E94B00608950E94320580914C
S1130EE06601807C803C11F40E94E10680916500DB
S1130EF08130A9F70E9460008091610081FDEFCFED
S1130F00109265000E945E05EACF97FB072E16F447
S1130F10009407D077FD09D00E949F0707FC05D0F5
S1130F203EF4909581959F4F0895709561957F4FFC
S1130F300895EE0FFF1F0590F491E02D0994AA1B6C
S1130F40BB1B51E107C0AA1FBB1FA617B70710F0B0
S1130F50A61BB70B881F991F5A95A9F780959095E2
S10D0F60BC01CD010895F894FFCF01
S9030000FC
